:020000040800F2
:10000000002000204D1300089513000895130008E8
:1000100095130008951300089513000800000000D0
:100020000000000000000000000000009513000820
:1000300095130008000000009513000895130008B0
:1000400000000000000000000000000000000000B0
:1000500000000000000000000000000000000000A0
:100060000000000000000000000000000000000090
:100070000000000000000000000000000000000080
:100080000000000000000000000000000000000070
:100090000000000000000000000000000000000060
:1000A0000000000000000000000000000000000050
:1000B0000000000000000000000000000000000040
:1000C0000000000000000000000000000000000030
:1000D0000000000000000000000000000000000020
:1000E0000000000000000000000000000000000010
:1000F0000000000000000000000000000000000000
:1001000000000000000000000000000000000000EF
:1001100000000000000000000000000000000000DF
:1001200000000000000000000000000000000000CF
:1001300000000000000000000000000000000000BF
:1001400000000000000000000000000000000000AF
:10015000000000000000000000000000000000009F
:10016000000000000000000000000000000000008F
:10017000000000000000000000000000000000007F
:08018000000000000000000077
:100188000448054B10B5834203D0044B002B00D024
:10019800984710BD04000020040000200000000063
:1001A80006480749091A8B10C90FC91810B5491014
:1001B80003D0044B002B00D0984710BD040000204A
:1001C800040000200000000010B5074C2378002B25
:1001D80009D1FFF7D5FF054B002B02D0044800E0FA
:1001E80000BF0123237010BD0400002000000000A0
:1001F80098130008054B10B5002B03D00449054897
:1002080000E000BFFFF7CCFF10BDC04600000000B3
:10021800080000209813000802B4714649084900F4
:10022800095649008E4402BC7047C0460022430864
:100238008B4274D303098B425FD3030A8B4244D3A6
:10024800030B8B4228D3030C8B420DD3FF220902E8
:1002580012BA030C8B4202D31212090265D0030BA7
:100268008B4219D300E0090AC30B8B4201D3CB039D
:10027800C01A5241830B8B4201D38B03C01A5241DF
:10028800430B8B4201D34B03C01A5241030B8B42E1
:1002980001D30B03C01A5241C30A8B4201D3CB02CC
:1002A800C01A5241830A8B4201D38B02C01A5241B1
:1002B800430A8B4201D34B02C01A5241030A8B42B4
:1002C80001D30B02C01A5241CDD2C3098B4201D3CC
:1002D800CB01C01A524183098B4201D38B01C01A4A
:1002E800524143098B4201D34B01C01A52410309C1
:1002F8008B4201D30B01C01A5241C3088B4201D370
:10030800CB00C01A524183088B4201D38B00C01A1C
:10031800524143088B4201D34B00C01A5241411A43
:1003280000D20146524110467047FFE701B5002050
:1003380000F006F802BDC0460029F7D076E77047FE
:100348007047C04670B50D4B0D4D5E1BB610AB42E5
:1003580005D0002408CD01349847A642FAD801F008
:1003680017F8084B084D5E1BB610AB4205D00024A9
:1003780008CD01349847A642FAD870BDC0130008CA
:10038800C0130008C4130008C013000800207047F9
:1003980010B5040000F0D2F900F0D9F922001021BC
:1003A800722000F049F9002010BD002070470000BD
:1003B80010B500F047F900F05DF900F09BF900F086
:1003C800C3F81021084A702000F0B8F81021074A35
:1003D8006B2000F0B3F800217820054A00F0AEF851
:1003E80000F0CAF8FCE7C046990300089503000826
:1003F800B303000801207047F8B50D0014000F275B
:1004080000F0C6F96519AC4203D10A2000F0C0F922
:10041800F8BD2378054E1B09F05C00F0B9F9237884
:1004280001343B40F05C00F0B3F9ECE7B01300088E
:1004380007B56B46DA1D044B72201B680121137047
:10044800FFF7DAFF00200EBD200000200322114B29
:10045800944618680023F0B50F4C99B0C6B2B34261
:1004680009DB614641436A467220C9B2FFF7C4FFFF
:10047800002019B0F0BD654669465D431A01175D55
:10048800A2184F555768127B6D4401336F70AA70DC
:10049800DBB2E4E7200000202400002070B514003F
:1004A800A31A984201DC00201FE04D780B782E003B
:1004B800303EF6B2092E0CD826701D00303DEDB244
:1004C800092D15D823782D012B43237002310134CF
:1004D800E6E72E00413E052E02D8373D2570ECE7B1
:1004E8002E00613E052E01D9012070BD573DF5E76C
:1004F8001D00413D052D03D8373B25781B01E3E757
:100508001D00613D052DEFD8573BF6E7F0B5094FC3
:1005180006003D6801201F2D0BDC3F2909D8064C39
:1005280028010655201841608260037300200135B8
:100538003D60F0BD200000202400002010B50023FD
:10054800FFF7E4FF10BD000010B50021074A762030
:10055800FFF7F4FF0021064A7720FFF7EFFF00219D
:100568007920044AFFF7EAFF10BDC046FD030008E2
:100578005504000839040008F0B50025B3B000F0B0
:10058800EFF82B4B2B491A68AA4241DC3ED00127D1
:10059800284C2D016619337B3B4218D000236A464C
:1005A800137200F0DDF848226B469B18187000F0B3
:1005B800D7F849226B469B18187002AA380012A96E
:1005C800FFF76CFF002821D16B461B7A7360002669
:1005D80063195B685B00B34220D800F0C1F80A28B1
:1005E80001D00D2812D16419656802AA280012A941
:1005F800FFF754FF002809D1E9B2A36802A8984779
:1006080001AA107001217A20FFF7F6FE33B0F0BD81
:100618002C010C5D8442BAD00135B5E700F0A0F892
:100628000A28F3D00D28F1D012ABF0540136CFE7E9
:10063800200000202400002010B5002A01D0FFF778
:10064800DBFE10BD032310B5002492B0059305A866
:100658000233069308940F9400F0B0F807232100A2
:10066800019301A8063B02930394049400F0D6FA80
:1006780012B010BD802270B51B4C9202636988B01D
:10068800134363616369902013400193019BC02366
:10069800DB00012503260393022303A9C005049365
:1006A80005950795069600F05DFB8022A369D201A7
:1006B8001343A361A3690D4813400293029B236B64
:1006C800B3431D430A4B2563036096231B02436013
:1006D80000238360C360036183610C33436100F0CE
:1006E8001FFD08B070BDC046001002402402002063
:1006F800003801408021104B70B55A6989020A43BD
:100708005A615B6986B00B4000939024009B80255A
:1007180001230026E40520006D01029301A902339C
:1007280004930195039600F01DFB32002900200078
:1007380000F0D0FB06B070BD001002408021902070
:1007480010B501224901C00500F0C4FB10BD80218D
:10075800902010B500224901C00500F0BBFB10BD78
:1007680037B508246B46DD1D0122322329000648CF
:1007780000F002FD002801D128783EBD034A136A23
:1007880023431362EEE7C0462402002000380140EC
:1007980007B56B46D91D087001220248024B00F0CC
:1007A8006BFD07BD2402002088130000024B186867
:1007B800421C1A607047C04694020020F0B50368D6
:1007C800040085B0DB0733D423689B0700D58AE093
:1007D80023681B0700D5CAE023685B0700D5EDE056
:1007E8002368DB061AD562690423BB4D012A00D0B1
:1007F80056E1696B02270B436B636B6B1A436A63A1
:10080800FFF7D4FF06006B6B3B4200D141E1F821B2
:100818006A6BA3698A43DB0013436B6323689B06F7
:1008280000D565E1616A002900D0A2E1002018E046
:100838000C22A94D6B681340042B0BD06B68134036
:10084800082B10D1C0226B6852021340802252023A
:10085800934208D12B689B03B6D56368002BB3D1AC
:10086800012005B0F0BD6368012B13D180232A68ED
:100878005B0213432B60FFF799FF80270600BF0236
:100888002B683B42A0D1FFF791FF801B6428F7D962
:100898000320E6E7002B16D12B68904A80271340E7
:1008A8002B602B688E4ABF0213402B60FFF77EFF38
:1008B80006002B683B4200D186E7FFF777FF801BD5
:1008C8006428F6D9E4E7052B05D180232A68DB02E2
:1008D80013432B60CAE72B68804A13402B602B68B0
:1008E8007F4A1340C6E70C227B4D6B6813420BD03E
:1008F8006B681340082B15D1C0226B685202134055
:100908008022120293420DD12B689B0702D5E3681F
:10091800012BA5D1F8212A6823698A43DB001343F8
:100928002B6055E7E2680123002A0FD02A680227C6
:1009380013432B60FFF73AFF06002B683B42E9D1CF
:10094800FFF734FF801B0228F7D9A1E72A6802279E
:100958009A432A60FFF72AFF06002B683B4200D122
:1009680036E7FFF723FF801B0228F6D990E7E269F4
:100978000123594D002A10D06A6A022713436B627B
:10098800FFF714FF06006B6A3B4200D024E7FFF72D
:100998000DFF801B0228F6D97AE76A6A02279A4374
:1009A8006A62FFF703FF06006B6A3B4200D113E758
:1009B800FFF7FCFE801B0228F6D969E78022002198
:1009C800454D5205EB690091134208D1EB69134379
:1009D800EB61EB6913400393039B0123009380278A
:1009E800404E7F0033683B4215D0A368012B22D1CB
:1009F8002A6A13432B62FFF7D9FE022706002B6AE7
:100A08003B423FD0009B012B00D0E9E6EB69364A18
:100A18001340EB61E4E633683B433360FFF7C6FEFF
:100A2800019033683B42E0D1FFF7C0FE019BC01A3A
:100A38006428F6D92CE70122002B14D12B6A02274F
:100A480093432B622B6A033293432B62FFF7AEFE6C
:100A580006002B6A3B42D5D0FFF7A8FE234B801B2C
:100A68009842F6D914E7052B05D1296A013B0B43B7
:100A78002B622B6ABDE72B6A934304222B622B6AF5
:100A88009343B7E7FFF792FE184B801B9842B6D9FD
:100A9800FEE6FFF78BFE801B022800D8B3E6F7E6D8
:100AA800053203D16A6B9A436A63B0E66A6B022720
:100AB800134301226B636B6B93436B63FFF776FE03
:100AC80006006B6B3B4200D1A8E6FFF76FFE801B68
:100AD8000228F6D9DCE6C04600100240FFFFFEFF00
:100AE800FFFFFBFF00700040FFFFFFEF88130000CF
:100AF8000C22464D6B681340934209D06B68134033
:100B0800082B0ED1C0226B6852021340934208D1C1
:100B18006B6BDB0300D485E6236A012B00D09FE6CC
:100B280080E6236A002B11D080276B6B7F023B4342
:100B38006B63FFF73BFE06006B6B3B4200D071E630
:100B4800FFF734FE801B0228F6D9A1E66B6B304A0A
:100B5800802713406B63FFF729FE06007F026B6B4B
:100B68003B4200D15EE6FFF721FE801B0228F6D942
:100B78008EE60C22254D6B681340082B00D16FE6DA
:100B88002B68244A13402B6002292FD1FFF70EFE51
:100B980080270600BF042B683B4221D10F22EB6A55
:100BA80080269343226BB6041343EB62A16AE36A7F
:100BB8006A680B4318490A4013436B6080232A680C
:100BC8005B0413432B60FFF7F1FD04002B683342ED
:100BD80000D02BE6FFF7EAFD001B0228F6D957E6FE
:100BE800FFF7E4FD801B0228D5D951E6FFF7DEFDAB
:100BF80080260400B6042B68334200D116E6FFF7BE
:100C0800D5FD001B0228F6D942E6C0460010024076
:100C1800FFFFFEFFFFFFFFFEFF7FC2FFF7B50122C8
:100C28004B4E05003368019113408B4215D32A6857
:100C380093071ED4D20724D40123326801991A409D
:100C48008A4200D973E02B685B0700D577E0E12280
:100C5800404BD20300201A600AE03368019993439D
:100C68000B43336033681340019A9342DFD001206D
:100C7800FEBDF02038494B688343A86803434B60A6
:100C8800D8E76A68344C012A1AD123689B03EED549
:100C9800032163688B4313436360FFF787FD6B6829
:100CA8000700012B1CD10C2263681340042BC3D00E
:100CB800FFF77CFD294BC01B9842F4D90320D7E7E6
:100CC800022A03D123689B01E2D4D0E7032A03D187
:100CD800636BDB03DCD4CAE723689B07D8D4C6E779
:100CE800022B0BD10C2263681340082BA4D0FFF70A
:100CF8005DFD1A4BC01B9842F4D9DFE7032B10D0D7
:100D08000C226368134297D0FFF750FD134BC01BAA
:100D18009842F5D9D2E7FFF749FD104BC01B98421E
:100D2800CCD80C22636813409342F4D184E732682C
:100D38009A43326032681A4200D184E797E7064A3C
:100D4800074953680B40E9680B4353607FE7C04687
:100D5800002002400000002000100240881300001C
:100D6800FFF8FFFF0023F0B587B00A681400DC40E5
:100D780001D107B0F0BD012614009E403440029412
:100D8800324200D196E04A6815000192102295433C
:100D98000395022D0FD107240F251C40A400A54060
:100DA800DA0892008218176AAF43BC460F69A74059
:100DB80064462743176203225C00A240D543AC4631
:100DC800032507689743019A2A40A240039D3A43A6
:100DD800013D0260012D0DD8624685681540CA683C
:100DE800A2402A438260019A456812099A40B54395
:100DF8002A4342606246C56815408A68A24080243A
:100E08002A43C260019A6405224253D001252A4A26
:100E180090279469FF052C43946192699C082A40A5
:100E28000592059A254AA400A4180F2202351D40F0
:100E3800AD00AA40A66896430022B84210D0204FC1
:100E48000132B8420CD01F4F0132B84208D01E4FB1
:100E58000132B84204D01D4A8218571EBA410432E2
:100E6800AA403243A2601A4A029C1668029D019F5A
:100E7800E4433543FF0301D4350025401560566827
:100E8800029D019F3543BF0301D4350025405560BD
:100E98009668029D019F3543FF0201D43500254025
:100EA8009560D568029E019F2E43BF0201D425405C
:100EB8002E00D660013358E70010024000000140C0
:100EC8000004004800080048000C004800F0FFB784
:100ED80000040140002A01D0816170478162FCE76B
:100EE800F7B504000E00170001932568EB6933403D
:100EF8009B1B5A425341BB4201D0002017E0089B7C
:100F08000133F3D0089B002B12D12B680C4A032025
:100F180013402B60AB68A332FF3293432200AB60CF
:100F28002023693213705370002368342370FEBD88
:100F3800FFF73CFC019BC01A089B9842D5D9E4E70F
:100F48005FFEFFFF002373B50400C366FFF72EFCA6
:100F58002668174B05009E420BD0164B9E4208D0C0
:100F680022002023002069326834137053702070E7
:100F780076BD33681B070ED433685B07F0D5802134
:100F88000D4B0022009320002B00C903FFF7A8FF98
:100F98000028E5D00AE08021074B002200932000BA
:100FA8002B008903FFF79CFF0028E5D00320DFE72B
:100FB8000038014000440040FFFFFF01030070B506
:100FC80099681D69046829435D69C26929432068D5
:100FD800494D1143284001432160616847481D6A13
:100FE8000140D868014361609969A0682943444D6C
:100FF800284080250143A16042492D028C4211D12D
:1010080003204149096B0140022900D16AE081426D
:1010180060D0012915D0AA4217D05968E1234808A1
:10102800DB034BE039498C4226D1C0208026364963
:101038008002096BB6020140B14253D016D800298C
:10104800E9D0802109028A42E7D15968E12348089A
:101058001B04C018FFF7EAF883B2002019000F221A
:101068001B0791435B0F0B43E36070BD814231D096
:10107800AA4214D00120F8E725498C42CBD0254953
:101088006018411E88410001AA420BD1082806D8E1
:10109800FFF7C2F8DB052405DB0505052C00012058
:1010A8000023DBE70828E5D8FFF7B6F8B7E405E43E
:1010B800B7E4E4E40F005968174B4808C018FFF775
:1010C800B5F880B2E0600020CFE75968802348086F
:1010D8001B02F3E7802109028A42ECD159680F4BC1
:1010E8004808B6E7802109028A42EED15968802370
:1010F80048085B02ADE7C046F369FFEFFFCFFFFF8B
:10110800FFF4FFFF00380140001002400044004097
:101118000048004000B4FFBF0024F4000048E80184
:1011280070B5041E01D1012070BD030069331A781F
:10113800D1B2002A02D1020068321170242201269D
:101148001A70256820002B68B3432B60FFF736FF21
:10115800B042E8D06B68074A200013402A226B602F
:10116800AB689343AB602B681E432E60FFF7EAFE23
:10117800DAE7C046FFB7FFFFF0B585B00393030079
:101188006A3316001A7804000D000220202A3BD189
:101198000138002938D0002E36D08022A1685201AB
:1011A800914204D12269002A01D105422CD12200A2
:1011B800683211780220012926D0012111700022FD
:1011C800E26622321A70FFF7F1FA23008021A26842
:1011D80058331E805E800290490104338A4217D139
:1011E8002269002A12D1234A1A8080271E887F018B
:1011F80022005A32138898B2002B19D123002022DA
:101208006A3368341A70207005B0F0BDFF22EBE72E
:10121800002A04D12269002AF8D07F22E4E780213D
:1012280049058A42E1D12269002AF6D03F22DBE74C
:1012380013882021013B9BB21380039B002200935B
:101248002000029BFFF74CFE002810D1A2682368FB
:10125800BA4207D12269002A04D19B8C33402B80E3
:101268000235C5E79B8C33402B700135C0E703205E
:10127800CAE7C046FF010000F0B5070085B0039338
:1012880069373B7804000D0016000220202B46D158
:101298000138002943D0002A41D08023A2685B018D
:1012A8009A4204D12369002B01D1014237D123008E
:1012B80068331A780220012A31D001221A700023DB
:1012C800E36621333B70FFF771FA230050331E8029
:1012D8005E80802602907601210052310B889AB2F6
:1012E800002B0DD1039B402100932000029BFFF7A8
:1012F800F7FD002812D1202368343B7020700EE0DF
:101308000B880022013B9BB20B80039B802100933A
:101318002000029BFFF7E4FD002802D0032005B05F
:10132800F0BDA3682268B34208D12369002B05D118
:101338002B880235DB05DB0D1385CDE72B780135CE
:101348001385C9E7002103E00B4B5B584350043178
:101358000A480B4B42189A42F6D30A4A02E0002385
:1013680013600432084B9A42F9D300E000BFFEF73D
:10137800E9FFFFF71DF8FEE7C8130008000000208A
:10138800040000200400002098020020FEE700006E
:10139800F8B5C046F8BC08BC9E467047F8B5C046CC
:0813A800F8BC08BC9E4670472A
:1013B000303132333435363738394142434445468B
:0413C000FD01000823
:0413C400D10100084B
:0413C80000127A0095
:040000050800134D8F
:00000001FF
